:020000040800F2
:100000000000022069140008B9140008B91400089F
:10001000B9140008B9140008B91400080000000061
:10002000000000000000000000000000B9140008FB
:10003000B914000800000000B9140008B914000841
:10004000B9140008B9140008B9140008B91400085C
:1000500000000000B9140008B9140008B914000821
:10006000B9140008B9140008B9140008B91400083C
:10007000B9140008B9140008B9140008B91400082C
:10008000B9140008B9140008B9140008B91400081C
:10009000B9140008B9140008B9140008B91400080C
:1000A000B9140008B9140008B9140008B9140008FC
:1000B000B9140008B9140008B9140008B9140008EC
:1000C000B9140008B9140008B9140008B9140008DC
:1000D000B9140008B9140008B9140008B9140008CC
:1000E000B9140008B9140008B9140008B9140008BC
:1000F000B9140008B9140008B9140008B9140008AC
:10010000B9140008B9140008B9140008B91400089B
:10011000B9140008B9140008B9140008B91400088B
:10012000B9140008B9140008B9140008B91400087B
:10013000B9140008B9140008B9140008B91400086B
:10014000B9140008B9140008B9140008B91400085B
:10015000B9140008B9140008B9140008B91400084B
:10016000B9140008B9140008B9140008B91400083B
:10017000B9140008B9140008B9140008B91400082B
:08018000B9140008B9140008CD
:1001880010B5054C237833B9044B13B10448AFF3C9
:1001980000800123237010BD000000200000000033
:1001A800BC14000808B5034B1BB103490348AFF35F
:1001B800008008BD0000000004000020BC140008F6
:1001C80080B483B000AF786000E000BF7B685A1E3F
:1001D8007A60002BF9D100BF00BF0C37BD465DF82F
:1001E800047B704780B582B000AF0121042000F085
:1001F80079FE02233B6001233B710023FB7103233B
:100208007B713B4619460F4800F0D4F802210D488F
:1002180000F0E9F90C4B64221A600B4B1B6805339C
:10022800094A13600221074800F0ECF90748FFF774
:10023800C7FF0221034800F0D6F90448FFF7C0FFC2
:1002480000BFEAE7000802401C000020A086010069
:1002580080B582B000AF78607B684B4A934208D182
:100268000121012000F0DEFE0021012000F0DAFE6D
:1002780086E07B68454A934208D10121022000F0BC
:10028800D1FE0021022000F0CDFE79E07B68404AD3
:10029800934208D10121042000F0C4FE002104206B
:1002A80000F0C0FE6CE07B683A4A934208D1012115
:1002B800082000F0B7FE0021082000F0B3FE5FE040
:1002C8007B68354A934208D10121102000F0AAFE2C
:1002D8000021102000F0A6FE52E07B682F4A9342CE
:1002E80008D10121202000F09DFE0021202000F0EF
:1002F80099FE45E07B682A4A934208D101214020B3
:1003080000F090FE0021402000F08CFE38E07B6871
:10031800244A934208D10121802000F083FE002165
:10032800802000F07FFE2BE07B681F4A93420AD1B1
:1003380001214FF4807000F075FE00214FF48070A9
:1003480000F070FE1CE07B68184A93420AD1012134
:100358004FF4007000F066FE00214FF4007000F0CA
:1003680061FE0DE07B68124A934209D101214FF4E6
:10037800806000F057FE00214FF4806000F052FECC
:1003880000BF0837BD4680BD00000240000402409F
:1003980000080240000C0240001002400014024015
:1003A80000180240001C02400020024000240240C5
:1003B8000028024080B487B000AF7860396000231D
:1003C8007B6100233B610023FB6000237B6176E0B7
:1003D80001227B6902FA03F33B613B681B683A69B7
:1003E8001340FB60FA683B699A4265D17B681A68DA
:1003F8007B695B00032101FA03F3DB431A407B6846
:100408001A607B681A683B681B7919467B695B0030
:1004180001FA03F31A437B681A603B681B79012BC6
:1004280003D03B681B79022B2ED17B689A687B69C5
:100438005B00032101FA03F3DB431A407B689A60EF
:100448007B689A683B685B7919467B695B0001FAAF
:1004580003F31A437B689A607B685A687B699BB28E
:10046800194601238B40DB431A407B685A607B683E
:100478005B683A68927911467A6992B201FA02F297
:1004880092B21A437B685A607B68DA687B699BB2D0
:100498005B00032101FA03F3DB431A407B68DA604F
:1004A8007B68DA683B68DB7919467B695B0001FA8F
:1004B80003F31A437B68DA607B6901337B617B69EC
:1004C8000F2B85D900BF00BF1C37BD465DF8047BE4
:1004D800704780B483B000AF78607B684FF6FF72D6
:1004E8001A607B6800221A717B6800225A717B6847
:1004F80000229A717B680022DA7100BF0C37BD4672
:100508005DF8047B704780B485B000AF78600B4617
:100518007B804FF48033FB607A88FB681343FB6071
:10052800FA687B68DA617A887B68DA61FA687B68DE
:10053800DA617B68DB69FB607B68DB69FB6000BFB5
:100548001437BD465DF8047B704780B485B000AFB2
:1005580078600B467B800023FB737B681A697B8875
:100568001340002B02D00123FB7301E00023FB732F
:10057800FB7B18461437BD465DF8047B704780B492
:1005880083B000AF78607B681B699BB218460C3754
:10059800BD465DF8047B704780B485B000AF7860D5
:1005A8000B467B800023FB737B685A697B8813406A
:1005B800002B02D00123FB7301E00023FB73FB7BBC
:1005C80018461437BD465DF8047B704780B483B085
:1005D80000AF78607B685B699BB218460C37BD46F4
:1005E8005DF8047B704780B483B000AF78600B4639
:1005F8007B807A887B689A6100BF0C37BD465DF8BE
:10060800047B704780B483B000AF78600B467B8072
:100618007B881A047B689A6100BF0C37BD465DF879
:10062800047B704780B483B000AF78600B467B8052
:1006380013467B707B78002B03D07A887B689A619D
:1006480003E07B881A047B689A6100BF0C37BD46BB
:100658005DF8047B704780B483B000AF78600B46C8
:100668007B807A887B685A6100BF0C37BD465DF88D
:10067800047B704780B483B000AF78600B467B8002
:100688007B685A697B885A407B685A6100BF0C377F
:10069800BD465DF8047B704780B485B000AF7860D4
:1006A8000B467B8013467B700023FB600023BB60F6
:1006B8007A787B8803F007039B0002FA03F3FB6058
:1006C8007B88DB089BB21A467B68083253F82220E5
:1006D8007B8803F007039B000F2101FA03F3DB4338
:1006E8007988C90889B2084602EA03017B6800F1E3
:1006F800080243F822107B88DB089BB21A467B6805
:10070800083253F82230FA681343BB607B88DB0851
:100718009BB21A467B680832B96843F8221000BFBA
:100728001437BD465DF8047B704700BF80B400AF46
:10073800164B1B68154A43F001031360134B002244
:100748009A60124B1B68114A23F0A85323F4102314
:1007580013600E4B0E4A5A600C4B0E4AC3F88420A5
:100768000A4B0D4AC3F88820084B1B68074A23F434
:1007780080231360054B0022DA60044B0022C3F883
:100788008C2000BFBD465DF8047B704700380240EE
:1007980010300024003000200030002480B483B0E2
:1007A80000AF0346FB71064B00221A70044AFB791E
:1007B800137000BF0C37BD465DF8047B704700BF5F
:1007C8000238024080B582B000AF00233B600023AE
:1007D800FB710023BB71312000F0A8FD0346BB71FB
:1007E8003B6801333B603B68B3F5A04F02D0BB794F
:1007F800002BF0D0312000F099FD0346002B02D0E9
:100808000123FB7101E00023FB71FB7918460837CF
:10081800BD4680BD80B485B000AF0346FB710023A0
:10082800FB600A4B1B68FB60FB6823F0F803FB6066
:10083800FB79DB00FA681343FB60044AFB6813602A
:1008480000BF1437BD465DF8047B7047003802408E
:1008580080B483B000AF0346FB71044AFB79136090
:1008680000BF0C37BD465DF8047B70470000474267
:1008780080B483B000AF0346FB710D4B00221A70A1
:100888000B4B00221A70FB79012B02D0042B04D0E9
:1008980007E0074B01221A7003E0054B05221A7086
:1008A80000BF00BF0C37BD465DF8047B704700BF32
:1008B8007038024080B483B000AF0346FB71044A2D
:1008C800FB79136000BF0C37BD465DF8047B7047A9
:1008D800800E474280B485B000AFF860B9607A6096
:1008E8003B607B689A01BB681A433B685B08013B25
:1008F8001B041A43FB681A43BB691B0604491343CC
:100908004B6000BF1437BD465DF8047B704700BFDD
:100918000038024080B483B000AF0346FB71044A3C
:10092800FB79136000BF0C37BD465DF8047B704748
:100938006000474280B483B000AF786039607B685C
:100948009A013B681B0705491343C1F8843000BF6F
:100958000C37BD465DF8047B704700BF0038024085
:1009680080B483B000AF0346FB71044AFB7913607F
:1009780000BF0C37BD465DF8047B704768004742EE
:1009880080B485B000AFF860B9607A60FB689A01FE
:10099800BB681B061A437B681B0705491343C1F84C
:1009A800883000BF1437BD465DF8047B704700BF30
:1009B8000038024080B483B000AF0346FB71044A9C
:1009C800FB79136000BF0C37BD465DF8047B7047A8
:1009D8007000474280B483B000AF0346FB71044AFD
:1009E800FB79136000BF0C37BD465DF8047B704788
:1009F8004C00474280B485B000AF7860396000236E
:100A0800FB600B4B9B68FB60FB6823F0EC63FB60AF
:100A18007A683B681343FA681343FB60044AFB682F
:100A2800936000BF1437BD465DF8047B704700BF74
:100A38000038024080B485B000AF78603960002388
:100A4800FB600B4B9B68FB60FB6823F07843FB6003
:100A58007A683B681343FA681343FB60044AFB68EF
:100A6800936000BF1437BD465DF8047B704700BF34
:100A78000038024080B485B000AF78600023FB6086
:100A8800094B9B68FB60FB6823F00303FB60FA6873
:100A98007B681343FB60044AFB68936000BF14370C
:100AA800BD465DF8047B70470038024080B400AF53
:100AB800054B9B68DBB203F00C03DBB21846BD465E
:100AC8005DF8047B704700BF0038024080B485B0F1
:100AD80000AF78600023FB60094B9B68FB60FB68F4
:100AE80023F0F003FB60FA687B681343FB60044A59
:100AF800FB68936000BF1437BD465DF8047B704700
:100B08000038024080B485B000AF78600023FB60F5
:100B1800094B9B68FB60FB6823F4E053FB60FA68B1
:100B28007B681343FB60044AFB68936000BF14377B
:100B3800BD465DF8047B70470038024080B485B03C
:100B480000AF78600023FB600A4B9B68FB60FB6882
:100B580023F46043FB607B68DB00FA681343FB60A7
:100B6800044AFB68936000BF1437BD465DF8047BF8
:100B7800704700BF0038024080B489B000AF786089
:100B88000023BB6100237B610023FB6102233B61DF
:100B98000023FB600223BB604A4B9B6803F00C03F5
:100BA800BB61BB69082B11D0BB69082B44D8BB6952
:100BB800002B03D0BB69042B04D03DE07B68424A7C
:100BC8001A603DE07B68414A1A6039E03D4B5B683A
:100BD8009B0D03F00103FB603A4B5B6803F03F0396
:100BE800BB60FB68002B0CD0384ABB68B2FBF3F340
:100BF800344A52689209C2F3080202FB03F3FB610C
:100C08000BE0314ABB68B2FBF3F32E4A52689209F3
:100C1800C2F3080202FB03F3FB612A4B5B681B0C5F
:100C280003F0030301335B003B61FA693B69B2FBE4
:100C3800F3F27B681A6003E07B68234A1A6000BFFE
:100C4800204B9B6803F0F003BB61BB691B09BB61C8
:100C58001F4ABB6913441B78DBB27B617B681A6847
:100C68007B69DA407B685A60164B9B6803F4E05353
:100C7800BB61BB699B0ABB61154ABB6913441B78FE
:100C8800DBB27B617B685A687B69DA407B689A6073
:100C98000C4B9B6803F46043BB61BB695B0BBB6196
:100CA8000B4ABB6913441B78DBB27B617B685A68CB
:100CB8007B69DA407B68DA6000BF2437BD465DF89F
:100CC800047B7047003802400024F40000127A00C8
:100CD800D414000880B485B000AF78600023FB60AE
:100CE8007B6803F44073B3F5407F11D10F4B9B68C9
:100CF800FB60FB6823F4F813FB607B6823F0704308
:100D080023F44073FA681343FB60084AFB68936056
:100D1800064B1A6F7B68C3F30B03044913430B6735
:100D280000BF1437BD465DF8047B704700380240A9
:100D380080B483B000AF0346FB71044AFB791360AB
:100D480000BF0C37BD465DF8047B70473C0E474238
:100D580080B483B000AF0346FB71044AFB7913608B
:100D680000BF0C37BD465DF8047B7047400E474214
:100D780080B483B000AF7860044A7B68136000BF1A
:100D88000C37BD465DF8047B704700BF5C014742E5
:100D980080B485B000AF78600023FB600A4BD3F8BD
:100DA8008C30FB60FB6823F44013FB60FA687B68B7
:100DB8001343FB60044AFB68C2F88C3000BF143749
:100DC800BD465DF8047B70470038024080B485B0AA
:100DD80000AF78600023FB600A4BD3F88C30FB60CF
:100DE800FB6823F44003FB60FA687B681343FB60ED
:100DF800044AFB68C2F88C3000BF1437BD465DF862
:100E0800047B70470038024080B485B000AF78603A
:100E18000023FB600B4BD3F88C30FB60FB6823F09E
:100E28001F03FB607B68013BFA681343FB60054ABC
:100E3800FB68C2F88C3000BF1437BD465DF8047BF0
:100E4800704700BF0038024080B485B000AF7860BA
:100E58000023FB600B4BD3F88C30FB60FB6823F45A
:100E6800F853FB607B68013B1B02FA681343FB6085
:100E7800044AFB68C2F88C3000BF1437BD465DF8E1
:100E8800047B70470038024080B485B000AF7860BA
:100E98000023FB600A4BD3F88C30FB60FB6823F41B
:100EA8004033FB60FA687B681343FB60044AFB68C5
:100EB800C2F88C3000BF1437BD465DF8047B70471C
:100EC8000038024080B483B000AF7860044A7B6881
:100ED800136000BF0C37BD465DF8047B704700BF48
:100EE800E011474280B483B000AF78600B46FB70D6
:100EF800FB78002B06D00A4B1A6B09497B68134311
:100F08000B6306E0064B1A6B7B68DB43044913400E
:100F18000B6300BF0C37BD465DF8047B704700BF0C
:100F28000038024080B483B000AF78600B46FB7095
:100F3800FB78002B06D00A4B5A6B09497B68134390
:100F48004B6306E0064B5A6B7B68DB43044913404E
:100F58004B6300BF0C37BD465DF8047B704700BF8C
:100F68000038024080B483B000AF78600B46FB7055
:100F7800FB78002B06D00A4B9A6B09497B68134310
:100F88008B6306E0064B9A6B7B68DB43044913408E
:100F98008B6300BF0C37BD465DF8047B704700BF0C
:100FA8000038024080B483B000AF78600B46FB7015
:100FB800FB78002B06D00A4B1A6C09497B6813434F
:100FC8000B6406E0064B1A6C7B68DB43044913404C
:100FD8000B6400BF0C37BD465DF8047B704700BF4B
:100FE8000038024080B483B000AF78600B46FB70D5
:100FF800FB78002B06D00A4B5A6C09497B681343CF
:101008004B6406E0064B5A6C7B68DB43044913408B
:101018004B6400BF0C37BD465DF8047B704700BFCA
:101028000038024080B483B000AF78600B46FB7094
:10103800FB78002B06D00A4B1A6909497B681343D1
:101048000B6106E0064B1A697B68DB4304491340D1
:101058000B6100BF0C37BD465DF8047B704700BFCD
:101068000038024080B483B000AF78600B46FB7054
:10107800FB78002B06D00A4B5A6909497B68134351
:101088004B6106E0064B5A697B68DB430449134011
:101098004B6100BF0C37BD465DF8047B704700BF4D
:1010A8000038024080B483B000AF78600B46FB7014
:1010B800FB78002B06D00A4B9A6909497B681343D1
:1010C8008B6106E0064B9A697B68DB430449134051
:1010D8008B6100BF0C37BD465DF8047B704700BFCD
:1010E8000038024080B483B000AF78600B46FB70D4
:1010F800FB78002B06D00A4B1A6A09497B68134310
:101108000B6206E0064B1A6A7B68DB43044913400E
:101118000B6200BF0C37BD465DF8047B704700BF0B
:101128000038024080B483B000AF78600B46FB7093
:10113800FB78002B06D00A4B5A6A09497B6813438F
:101148004B6206E0064B5A6A7B68DB43044913404E
:101158004B6200BF0C37BD465DF8047B704700BF8B
:101168000038024080B483B000AF78600B46FB7053
:10117800FB78002B06D00A4B1A6D09497B6813438C
:101188000B6506E0064B1A6D7B68DB430449134088
:101198000B6500BF0C37BD465DF8047B704700BF88
:1011A8000038024080B483B000AF78600B46FB7013
:1011B800FB78002B06D00A4B5A6D09497B6813430C
:1011C8004B6506E0064B5A6D7B68DB4304491340C8
:1011D8004B6500BF0C37BD465DF8047B704700BF08
:1011E8000038024080B483B000AF78600B46FB70D3
:1011F800FB78002B06D00A4B9A6D09497B6813438C
:101208008B6506E0064B9A6D7B68DB430449134007
:101218008B6500BF0C37BD465DF8047B704700BF87
:101228000038024080B483B000AF78600B46FB7092
:10123800FB78002B06D00A4B1A6E09497B681343CA
:101248000B6606E0064B1A6E7B68DB4304491340C5
:101258000B6600BF0C37BD465DF8047B704700BFC6
:101268000038024080B483B000AF78600B46FB7052
:10127800FB78002B06D00A4B5A6E09497B6813434A
:101288004B6606E0064B5A6E7B68DB430449134005
:101298004B6600BF0C37BD465DF8047B704700BF46
:1012A8000038024080B483B000AF0346FB71FB797D
:1012B800012B06D1094B1B6F084A43F0080313673B
:1012C80005E0064B1B6F054A23F00803136700BFB0
:1012D8000C37BD465DF8047B704700BF00380240FC
:1012E80080B483B000AF03460A46FB711346BB7156
:1012F800BB79002B08D00C4B1B78DAB20A49FB7972
:101308001343DBB20B7009E0074B1B78DAB2FB79A9
:10131800DB43DBB204491340DBB20B7000BF0C3770
:10132800BD465DF8047B70470D38024080B487B035
:1013380000AF0346FB710023FB6000237B610023A1
:10134800FB74FB795B09DBB2FB60FB68012B03D103
:10135800124B1B687B6109E0FB68022B03D10F4B22
:101368001B6F7B6102E00D4B5B6F7B61FB7903F0C8
:101378001F03FB607A69FB6822FA03F303F0010399
:10138800002B02D00123FB7401E00023FB74FB7CDB
:1013980018461C37BD465DF8047B7047003802408C
:1013A80080B400AF054B5B6F044A43F0807353670A
:1013B80000BFBD465DF8047B704700BF003802409F
:1013C80080B485B000AF0346FB710023FB73094B63
:1013D800DA68FB791340002B02D00123FB7301E08C
:1013E8000023FB73FB7B18461437BD465DF8047B6E
:1013F800704700BF0038024080B483B000AF034696
:10140800FB71044AFB79137000BF0C37BD465DF8C9
:10141800047B70470E38024070B50D4D0D4C641BAF
:10142800A4100026A64209D10B4D0C4C00F042F83E
:10143800641BA4100026A64205D170BD55F8043BD4
:1014480098470136EEE755F8043B98470136F2E72E
:10145800E4140008E4140008E4140008E814000880
:101468000D488546AFF300800C480D490D4A00230E
:1014780002E0D458C4500433C4188C42F9D30A4A41
:101488000A4C002301E013600432A242FBD3FFF7A9
:10149800C3FFFEF7A7FEFEE70000022000000020C1
:1014A80000000020EC1400080000002020000020AC
:1014B800FEE70000F8B500BFF8BC08BC9E467047C0
:0C14C800F8B500BFF8BC08BC9E46704799
:1014D40000000000010203040102030406070809D6
:0414E400AD0100084E
:0414E800890100086E
:040000050800146972
:00000001FF
